{
  "contractName": "UserAuth",
  "abi": [
    {
      "inputs": [],
      "stateMutability": "nonpayable",
      "type": "constructor"
    },
    {
      "anonymous": false,
      "inputs": [
        {
          "indexed": true,
          "internalType": "address",
          "name": "user",
          "type": "address"
        },
        {
          "indexed": false,
          "internalType": "string",
          "name": "cid",
          "type": "string"
        }
      ],
      "name": "CIDStored",
      "type": "event"
    },
    {
      "anonymous": false,
      "inputs": [
        {
          "indexed": true,
          "internalType": "address",
          "name": "user",
          "type": "address"
        },
        {
          "indexed": false,
          "internalType": "bool",
          "name": "isFraudulent",
          "type": "bool"
        }
      ],
      "name": "FraudStatusUpdated",
      "type": "event"
    },
    {
      "anonymous": false,
      "inputs": [
        {
          "indexed": true,
          "internalType": "address",
          "name": "user",
          "type": "address"
        },
        {
          "indexed": false,
          "internalType": "string",
          "name": "username",
          "type": "string"
        },
        {
          "indexed": false,
          "internalType": "string",
          "name": "time",
          "type": "string"
        }
      ],
      "name": "UserLoggedIn",
      "type": "event"
    },
    {
      "anonymous": false,
      "inputs": [
        {
          "indexed": true,
          "internalType": "address",
          "name": "user",
          "type": "address"
        },
        {
          "indexed": false,
          "internalType": "string",
          "name": "username",
          "type": "string"
        }
      ],
      "name": "UserRegistered",
      "type": "event"
    },
    {
      "inputs": [],
      "name": "owner",
      "outputs": [
        {
          "internalType": "address",
          "name": "",
          "type": "address"
        }
      ],
      "stateMutability": "view",
      "type": "function",
      "constant": true
    },
    {
      "inputs": [
        {
          "internalType": "address",
          "name": "",
          "type": "address"
        },
        {
          "internalType": "uint256",
          "name": "",
          "type": "uint256"
        }
      ],
      "name": "userCIDs",
      "outputs": [
        {
          "internalType": "string",
          "name": "",
          "type": "string"
        }
      ],
      "stateMutability": "view",
      "type": "function",
      "constant": true
    },
    {
      "inputs": [
        {
          "internalType": "address",
          "name": "",
          "type": "address"
        }
      ],
      "name": "users",
      "outputs": [
        {
          "internalType": "bytes32",
          "name": "usernameHash",
          "type": "bytes32"
        },
        {
          "internalType": "bytes32",
          "name": "passwordHash",
          "type": "bytes32"
        },
        {
          "internalType": "bool",
          "name": "exists",
          "type": "bool"
        },
        {
          "internalType": "bool",
          "name": "isFraudulent",
          "type": "bool"
        }
      ],
      "stateMutability": "view",
      "type": "function",
      "constant": true
    },
    {
      "inputs": [
        {
          "internalType": "string",
          "name": "username",
          "type": "string"
        },
        {
          "internalType": "string",
          "name": "password",
          "type": "string"
        }
      ],
      "name": "register",
      "outputs": [],
      "stateMutability": "nonpayable",
      "type": "function"
    },
    {
      "inputs": [
        {
          "internalType": "string",
          "name": "username",
          "type": "string"
        },
        {
          "internalType": "string",
          "name": "password",
          "type": "string"
        },
        {
          "internalType": "string",
          "name": "time",
          "type": "string"
        }
      ],
      "name": "login",
      "outputs": [
        {
          "internalType": "bool",
          "name": "",
          "type": "bool"
        }
      ],
      "stateMutability": "nonpayable",
      "type": "function"
    },
    {
      "inputs": [
        {
          "internalType": "address",
          "name": "userAddress",
          "type": "address"
        },
        {
          "internalType": "bool",
          "name": "isFraud",
          "type": "bool"
        }
      ],
      "name": "updateFraudStatus",
      "outputs": [],
      "stateMutability": "nonpayable",
      "type": "function"
    },
    {
      "inputs": [
        {
          "internalType": "address",
          "name": "userAddress",
          "type": "address"
        }
      ],
      "name": "isUserFraudulent",
      "outputs": [
        {
          "internalType": "bool",
          "name": "",
          "type": "bool"
        }
      ],
      "stateMutability": "view",
      "type": "function",
      "constant": true
    },
    {
      "inputs": [
        {
          "internalType": "string",
          "name": "cid",
          "type": "string"
        }
      ],
      "name": "storeCID",
      "outputs": [],
      "stateMutability": "nonpayable",
      "type": "function"
    },
    {
      "inputs": [
        {
          "internalType": "address",
          "name": "user",
          "type": "address"
        }
      ],
      "name": "getCIDs",
      "outputs": [
        {
          "internalType": "string[]",
          "name": "",
          "type": "string[]"
        }
      ],
      "stateMutability": "view",
      "type": "function",
      "constant": true
    }
  ],
  "bytecode": "0x608060405234801561001057600080fd5b50600180546001600160a01b03191633179055610cae806100326000396000f3fe608060405234801561001057600080fd5b50600436106100935760003560e01c80638da5cb5b116100665780638da5cb5b14610129578063a87430ba14610154578063ccfdd32b146101b7578063ce631766146101ca578063cf9325a6146101dd57600080fd5b80633f627f5a146100985780633ffbd47f146100ad5780635721bb7d146100c05780636367da9c14610109575b600080fd5b6100ab6100a63660046107d3565b6101fd565b005b6100ab6100bb3660046108b2565b610335565b6100f46100ce366004610916565b6001600160a01b0316600090815260208190526040902060020154610100900460ff1690565b60405190151581526020015b60405180910390f35b61011c610117366004610916565b610477565b6040516101009190610981565b60015461013c906001600160a01b031681565b6040516001600160a01b039091168152602001610100565b61018f610162366004610916565b60006020819052908152604090208054600182015460029092015490919060ff8082169161010090041684565b6040805194855260208501939093529015159183019190915215156060820152608001610100565b6100ab6101c53660046109e3565b610566565b6100f46101d8366004610a20565b6105d4565b6101f06101eb366004610aa8565b6106fe565b6040516101009190610ad2565b6001546001600160a01b031633146102665760405162461bcd60e51b815260206004820152602160248201527f4f6e6c79206f776e65722063616e2063616c6c20746869732066756e6374696f6044820152603760f91b60648201526084015b60405180910390fd5b6001600160a01b03821660009081526020819052604090206002015460ff166102c75760405162461bcd60e51b8152602060048201526013602482015272155cd95c88191bd95cc81b9bdd08195e1a5cdd606a1b604482015260640161025d565b6001600160a01b0382166000818152602081905260409081902060020180548415156101000261ff0019909116179055517fa1527764a912d217ae4421a2539cc3fd2ed0b4f46777025d48c0c348f44dbc789061032990841515815260200190565b60405180910390a25050565b3360009081526020819052604090206002015460ff161561038e5760405162461bcd60e51b81526020600482015260136024820152725573657220616c72656164792065786973747360681b604482015260640161025d565b6040805160808101909152806103a78460a08301610ae5565b604051602081830303815290604052805190602001208152602001826040516020016103d39190610ae5565b60408051601f1981840301815291815281516020928301208352600183830181905260009382018490523380855284845293829020855181559285015190830155838101516002909201805460609095015115156101000261ff00199315159390931661ffff19909516949094179190911790925590517f48cac28ad4dc618e15f4c2dd5e97751182f166de97b25618318b2112aa951a2f90610329908590610ad2565b6001600160a01b0381166000908152600260209081526040808320805482518185028101850190935280835260609492939192909184015b8282101561055b5783829060005260206000200180546104ce90610b01565b80601f01602080910402602001604051908101604052809291908181526020018280546104fa90610b01565b80156105475780601f1061051c57610100808354040283529160200191610547565b820191906000526020600020905b81548152906001019060200180831161052a57829003601f168201915b5050505050815260200190600101906104af565b505050509050919050565b3360009081526002602090815260408220805460018101825590835291200161058f8282610b8a565b50336001600160a01b03167fd8a0edc6ade10e42d7ab691902b8c1a635fabe45ace3609fc4fbfad7e424e427826040516105c99190610ad2565b60405180910390a250565b336000908152602081815260408083208151608081018352815481526001820154938101939093526002015460ff808216151592840183905261010090910416151560608301526106295760009150506106f7565b80606001511561063d5760009150506106f7565b8460405160200161064e9190610ae5565b60405160208183030381529060405280519060200120816000015114801561069f5750836040516020016106829190610ae5565b604051602081830303815290604052805190602001208160200151145b156106f157336001600160a01b03167f45c334df23ad10b1b9b41c10cd46dc0fa0aeea6a37c1c4edb0c0d49c8879777a86856040516106df929190610c4a565b60405180910390a260019150506106f7565b60009150505b9392505050565b6002602052816000526040600020818154811061071a57600080fd5b9060005260206000200160009150915050805461073690610b01565b80601f016020809104026020016040519081016040528092919081815260200182805461076290610b01565b80156107af5780601f10610784576101008083540402835291602001916107af565b820191906000526020600020905b81548152906001019060200180831161079257829003601f168201915b505050505081565b80356001600160a01b03811681146107ce57600080fd5b919050565b600080604083850312156107e657600080fd5b6107ef836107b7565b91506020830135801515811461080457600080fd5b809150509250929050565b634e487b7160e01b600052604160045260246000fd5b600082601f83011261083657600080fd5b813567ffffffffffffffff808211156108515761085161080f565b604051601f8301601f19908116603f011681019082821181831017156108795761087961080f565b8160405283815286602085880101111561089257600080fd5b836020870160208301376000602085830101528094505050505092915050565b600080604083850312156108c557600080fd5b823567ffffffffffffffff808211156108dd57600080fd5b6108e986838701610825565b935060208501359150808211156108ff57600080fd5b5061090c85828601610825565b9150509250929050565b60006020828403121561092857600080fd5b6106f7826107b7565b60005b8381101561094c578181015183820152602001610934565b50506000910152565b6000815180845261096d816020860160208601610931565b601f01601f19169290920160200192915050565b6000602080830181845280855180835260408601915060408160051b870101925083870160005b828110156109d657603f198886030184526109c4858351610955565b945092850192908501906001016109a8565b5092979650505050505050565b6000602082840312156109f557600080fd5b813567ffffffffffffffff811115610a0c57600080fd5b610a1884828501610825565b949350505050565b600080600060608486031215610a3557600080fd5b833567ffffffffffffffff80821115610a4d57600080fd5b610a5987838801610825565b94506020860135915080821115610a6f57600080fd5b610a7b87838801610825565b93506040860135915080821115610a9157600080fd5b50610a9e86828701610825565b9150509250925092565b60008060408385031215610abb57600080fd5b610ac4836107b7565b946020939093013593505050565b6020815260006106f76020830184610955565b60008251610af7818460208701610931565b9190910192915050565b600181811c90821680610b1557607f821691505b602082108103610b3557634e487b7160e01b600052602260045260246000fd5b50919050565b601f821115610b8557600081815260208120601f850160051c81016020861015610b625750805b601f850160051c820191505b81811015610b8157828155600101610b6e565b5050505b505050565b815167ffffffffffffffff811115610ba457610ba461080f565b610bb881610bb28454610b01565b84610b3b565b602080601f831160018114610bed5760008415610bd55750858301515b600019600386901b1c1916600185901b178555610b81565b600085815260208120601f198616915b82811015610c1c57888601518255948401946001909101908401610bfd565b5085821015610c3a5787850151600019600388901b60f8161c191681555b5050505050600190811b01905550565b604081526000610c5d6040830185610955565b8281036020840152610c6f8185610955565b9594505050505056fea26469706673582212204843240bd724596d98c7a98b3c488fba59feea3a7772a0435b51ccc08951c52b64736f6c63430008130033",
  "immutableReferences": {},
  "source": "// SPDX-License-Identifier: MIT\r\npragma solidity ^0.8.0;\r\n\r\ncontract UserAuth {\r\n    struct User {\r\n        bytes32 usernameHash;\r\n        bytes32 passwordHash;\r\n        bool exists;\r\n        bool isFraudulent;\r\n    }\r\n\r\n    mapping(address => User) public users;\r\n    address public owner;\r\n\r\n    // IPFS Storage functionality\r\n    // Mapping to store CIDs for each user\r\n    mapping(address => string[]) public userCIDs;\r\n    \r\n    // Event emitted when a CID is stored\r\n    event CIDStored(address indexed user, string cid);\r\n\r\n    event UserRegistered(address indexed user, string username);\r\n    event UserLoggedIn(address indexed user, string username, string time);\r\n    event FraudStatusUpdated(address indexed user, bool isFraudulent);\r\n\r\n    constructor() {\r\n        owner = msg.sender;\r\n    }\r\n\r\n    modifier onlyOwner() {\r\n        require(msg.sender == owner, \"Only owner can call this function\");\r\n        _;\r\n    }\r\n\r\n    function register(string memory username, string memory password) public {\r\n        require(!users[msg.sender].exists, \"User already exists\");\r\n        users[msg.sender] = User(\r\n            keccak256(abi.encodePacked(username)),\r\n            keccak256(abi.encodePacked(password)),\r\n            true,\r\n            false\r\n        );\r\n        emit UserRegistered(msg.sender, username);\r\n    }\r\n    \r\n\r\n    function login(string memory username, string memory password, string memory time) public returns (bool) {\r\n        User memory user = users[msg.sender];\r\n        if (!user.exists) return false;\r\n        if (user.isFraudulent) return false;\r\n        if (\r\n            user.usernameHash == keccak256(abi.encodePacked(username)) &&\r\n            user.passwordHash == keccak256(abi.encodePacked(password))\r\n        ) {\r\n            emit UserLoggedIn(msg.sender, username, time);\r\n            return true;\r\n        }\r\n        return false;\r\n    }\r\n\r\n    function updateFraudStatus(address userAddress, bool isFraud) public onlyOwner {\r\n        require(users[userAddress].exists, \"User does not exist\");\r\n        users[userAddress].isFraudulent = isFraud;\r\n        emit FraudStatusUpdated(userAddress, isFraud);\r\n    }\r\n\r\n    function isUserFraudulent(address userAddress) public view returns (bool) {\r\n        return users[userAddress].isFraudulent;\r\n    }\r\n\r\n    // IPFS Storage functions\r\n    // Store a CID for the sender\r\n    function storeCID(string memory cid) public {\r\n        userCIDs[msg.sender].push(cid);\r\n        emit CIDStored(msg.sender, cid);\r\n    }\r\n    \r\n    // Retrieve all CIDs for a user\r\n    function getCIDs(address user) public view returns (string[] memory) {\r\n        return userCIDs[user];\r\n    }\r\n}",
  "sourcePath": "C:\\do\\fraud-detection-dapp\\contracts\\UserAuth.sol",
  "compiler": {
    "name": "solc",
    "version": "0.8.19+commit.7dd6d404.Emscripten.clang"
  },
  "schemaVersion": "3.4.16",
  "updatedAt": "2025-08-09T09:25:05.091Z",
  "networkType": "ethereum",
  "devdoc": {
    "kind": "dev",
    "methods": {},
    "version": 1
  },
  "userdoc": {
    "kind": "user",
    "methods": {},
    "version": 1
  }
}